:020000040800F2
:10400000FFFF012025830108250B0108270B01086C
:10401000490C0108610C0108790C0108000000003E
:104020000000000000000000000000004120030824
:10403000910C010800000000E1200308150B0108A5
:10404000A5830108A5830108A5830108A5830108AC
:10405000A5830108A5830108D1E30008F1E3000866
:1040600011E4000831E4000855E4000831F50008C7
:10407000A583010855F50008A5830108A58301085B
:1040800001330108D9170108A5830108A583010898
:10409000A5830108A5830108A58301087DE4000824
:1040A000A5830108A5830108A5830108A58301084C
:1040B000A5830108A5830108A583010825F500084B
:1040C00019F50008A5830108A5830108A583010847
:1040D000A5830108A5830108391801083D140108CA
:1040E00059E50008A5830108A5830108A5830108F7
:1040F000A58301084DE10008A5830108A5830108F7
:10410000A5830108A5830108A5830108A5830108EB
:10411000A5830108A5830108A5830108C9820108B8
:10412000D1880008A5830108A5830108A58301089B
:10413000A5830108A5830108A5830108A5830108BB
:10414000A5830108A5830108A5830108190B0108AF
:1041500069880008A5830108BD1E0108B91E010871
:1041600049F500083DF50008A5830108A58301086D
:10417000A5830108A5830108A5830108A58301087B
:08418000A5830108A5830108D5
:1041C00038B52DED028BB0EE418AF0EE618A55ECE8
:1041D000104B00F01DF830B9B0EE480AF0EE680A56
:1041E000BDEC028B38BDB0EE480AF0EE680A00F074
:1041F0000FF838B153EC182B2046294603F06EFD1A
:104200000028E9D0BDEC028B45EC104B38BD00BF57
:1042100051EC100B0B4631F0004106D00F4AA3F5CC
:10422000801C94450DD804207047A0B10C4A13425D
:104230000FD0914201D000207047B0FA80F04009C1
:10424000704703F1FF4C0CF5E00C9445EED80420C8
:104250007047032070470220704700BFFFFFDF7FD9
:104260000000F07F38B510EE105A25F00044B4F18C
:10427000A14FF0EE407A0BDBB4F1FF4F58DCDFEDDD
:10428000517A9FED510A002DC8BFB0EE670A38BDC4
:104290004E4B9C425BDCB4F1445F4CDB4FF0FF3291
:1042A00067EEA76ADFED4A4ADFED4A5A9FED4A5AA8
:1042B0009FED4A4A26EEA67AB0EE666AE7EE245AE9
:1042C000531CDFED474ADFED476AA5EE875AE7EE5C
:1042D000246ADFED455ADFED454AE6EE875AA5EE42
:1042E000074A9FED435ADFED436AA5EE875AE4EE95
:1042F000074ADFED415AE4EE876AE5EE075A66EEBB
:10430000866A25EE877A37D03C4B03EB820376EE44
:10431000876A93ED000A93ED047A96EEA70A002DC2
:1043200070EE677A37EE670AB1DAB1EE400A38BD4F
:1043300030EE000A38BD9FED327A30EE077AF7EEA4
:10434000006AB4EEE67AF1EE10FAA7DD38BD00F0AF
:1043500095F82C4B9C4216DCA3F5D0039C4227DC3D
:10436000F0EE007ABFEE007AA0EE277A002230EE5F
:10437000270AC7EE007A93E776EE876AE6EEE77AD9
:10438000B0EE670A38BD204B9C420BDCF7EE087A92
:10439000B7EE007AA0EE277A022230EE670AC0EE6E
:1043A000077A7DE7BFEE007AC7EE007A032277E74F
:1043B000F7EE007A30EE677A30EE270A0122C7EE78
:1043C000007A6DE7DB0FC93FDB0FC9BFFFFFDF3EA0
:1043D000D769853C59DA4B3D356B883D6E2EBA3D29
:1043E00021A215BD6BF16EBD95879DBD2549123E7D
:1043F000388EE3BDABAAAA3ECDCC4CBE086E0308F6
:10440000CAF24971FFFF973FFFFF1B4010EE103AC1
:10441000184A23F0004393421BDDB3F1FF4F02DB48
:1044200030EE400A704700B583B0684601F080FA6C
:1044300000F003000128DDED010A9DED000A0CD01B
:10444000022812D070B1012001F064FF03B05DF8C2
:1044500004FBDFED090A01F0A1BB01F05BFFB1EE47
:10446000400AF3E701F09AFBF0E701F097FBB1EEA9
:10447000400AEBE7D80F493F0000000010EE103A69
:1044800023F0004300EE103A704700BF10EE102AF0
:10449000C2F3C7537F3B162B22F0004128DC002BD0
:1044A00018DB1A4919410A4221D0DFED197A70EE62
:1044B000277AF5EEC07AF1EE10FA18DD002A04DA58
:1044C0004FF4000040FA03F31A4422EA010300EE1D
:1044D000103A7047DFED0E7A70EE277AF5EEC07A6B
:1044E000F1EE10FA03DD002A08DB9FED0A0A70479F
:1044F000B1F1FF4FFBD330EE000A7047FFEE007AB8
:10450000002918BFB0EE670A704700BFFFFF7F00A9
:10451000CAF249710000000008B52DED028BF0EEE3
:10452000408AB0EE608A00F033F820B9B0EE480A55
:10453000BDEC028B08BDB0EE480A00F029F820B1AE
:10454000F4EEC88AF1EE10FAF0DDB0EE680ABDECC8
:10455000028B08BD08B52DED028BF0EE408AB0EE5F
:10456000608A00F015F820B9B0EE480ABDEC028B65
:1045700008BDB0EE480A00F00BF820B1F4EEC88A8E
:10458000F1EE10FAF0D5B0EE680ABDEC028B08BD72
:1045900010EE103A33F000400ED0A0F50003B3F156
:1045A000FE4F0DD3074B421E9A4207D9A0F1FF40A0
:1045B000B0FA80F04009704702207047032070472E
:1045C00004207047FEFF7F0010EE103A194A23F0D6
:1045D000004393421CDDB3F1FF4F02DB30EE400A93
:1045E000704700B583B0684601F0A2F900F00300FF
:1045F0000128DDED010A9DED000A0ED0022813D03E
:1046000070B101F0CBFAB1EE400A03B05DF804FBE3
:10461000DFED090A002001F07DBE01F0BFFAF4E7EA
:10462000012001F077FEF0E7012001F073FEB1EE0A
:10463000400AEAE7D80F493F0000000010EE103AA8
:10464000114A23F00043934218DDB3F1FF4F02DB20
:1046500030EE400A704700B583B0684601F068F953
:10466000400000F00200DDED010A9DED000AC0F1FE
:10467000010001F097FE03B05DF804FBDFED030AD3
:10468000012001F08FBE00BFDA0F493F000000009B
:1046900008B52DED028BB0EE408A00F0A1F9144B65
:1046A00093F900300133F0EE408A0FD0B4EE488A1F
:1046B000F1EE10FA0AD6B0EE480AFFF7DFFEF7EE89
:1046C000007AB4EEE70AF1EE10FA04DCB0EE680A04
:1046D000BDEC028B08BD02F029F9BDEC028B03464C
:1046E00021221A600348BDE8084001F049BF00BF1D
:1046F0000000002028F8030808B52DED028BB0EE6D
:10470000408A00F091FA144B93F900300133F0EE37
:10471000408A0FD0B4EE488AF1EE10FA0AD6B0EE15
:10472000480AFFF7ABFEF7EE007AB4EEE70AF1EEC7
:1047300010FA04DCB0EE680ABDEC028B08BD02F092
:10474000F5F8BDEC028B034621221A600348BDE850
:10475000084001F015BF00BF0000002028F8030842
:1047600000F068BB08B52DED028BB0EE408A00F07A
:1047700007FC164B93F900300133F0EE408A12D05B
:10478000B0EE480A01F0EEFE68B1DFED117AB4EE4A
:10479000E78AF1EE10FA12DCDFED0E7AB4EEE78A6A
:1047A000F1EE10FA04D4B0EE680ABDEC028B08BD3D
:1047B00002F0BCF82223DFED088A0360F3E702F081
:1047C000B5F82223DFED058A0360ECE70000002046
:1047D0008071B142B5F1CFC2000000000000807FBF
:1047E00008B52DED028BF0EE408AB0EE608A00F045
:1047F000B5FC0E4B93F9003001330BD0F4EE488A30
:10480000F1EE10FA06D6DFED0A8AB4EE688AF1EE10
:1048100010FA02D0BDEC028B08BD02F087F888EEDA
:10482000A80ABDEC028B2123036008BD0000002014
:104830000000000008B52DED028BB0EE408A00F0BC
:104840001DFD144B93F90030013314D0B4EE488AA7
:10485000F1EE10FA0FD6B5EEC08AF1EE10FA0AD8D2
:10486000B5EE408AF1EE10FA08D102F05FF822238B
:104870009FED090A0360BDEC028B08BD02F056F8FB
:10488000BDEC028B034621221A600448BDE80840B3
:1048900001F076BE00000020000080FF28F8030829
:1048A00008B52DED048BF0EE408AB0EE608A00F082
:1048B00045FD474B93F900300133B0EE409A1FD0CD
:1048C000B4EE488AF1EE10FA1AD6F4EE688AF1EEE8
:1048D00010FA59D6DFED3F9AF4EE698AF1EE10FA3C
:1048E00013D1B4EE698AF1EE10FA29D0B0EE480A7D
:1048F00001F038FE20B1B4EEE98AF1EE10FA4DD4A1
:10490000B0EE490ABDEC048B08BD01F02BFEF0B1FE
:10491000B5EE409AF1EE10FAF2D1B0EE680A01F06D
:1049200021FE0028ECD0B0EE480A01F01BFE002862
:10493000E6D001F0FBFF22239FED269A0360DFE71C
:10494000B7EE009AB0EE490ABDEC048B08BDB0EE9C
:10495000680A01F007FE0028DAD0B0EE480A01F03C
:1049600001FE0028D4D0B4EE499AF1EE10FA28D610
:1049700001F0DCFFF5EEC08A2223F1EE10FA0360AD
:1049800013D49FED159ABBE7B5EE408AF7EE007A97
:10499000F1EE10FA08BFB0EE679AB1E701F0C6FF7A
:1049A00021239FED0E9A0360AAE7B0EE480A01F0BA
:1049B000EDFDB4EE480AF1EE10FAE2D09FED079A51
:1049C0009EE701F0B3FF212389EEA99A036097E7E0
:1049D00000000020000000000000807F000080FF39
:1049E00008B510EE102A22F00043B3F17E5F2DEDE2
:1049F000028B12D00ADCB3F17C5F19DAB3F10C5FE1
:104A00006CDCBDEC028B9FED770A08BD70EE407A3E
:104A100087EEA70ABDEC028B08BDBDEC028B9FEDB3
:104A2000720ADFED727A002AD8BFB0EE670A08BDBD
:104A3000002AC0F29080F7EE008A38EEC00AB6EE87
:104A4000008A20EE088AB0EE480A01F0A3F8DFEDF4
:104A5000687A9FED687A9FED686ADFED685ADFED4E
:104A6000686AA8EE277ADFED677AA7EE086AE8EEB3
:104A7000257AE6EE086ADFED645A9FED647AE7EE88
:104A8000885AA6EE887ADFED627A10EE103AE5EEEB
:104A9000887A23F47F6323F00F03B0EE476A9FED1B
:104AA0005D7AF0EE676AA6EE087A07EE903AB0EE0D
:104AB000486AE6EE888AA7EEE76A70EE276A27EE74
:104AC000088A86EE267AC8EE286ABDEC028BA0EE34
:104AD000267A37EE870A30EE000A08BD20EE007A0B
:104AE000DFED437A9FED436ADFED436A9FED435A62
:104AF000DFED435AA7EE276ABDEC028BE6EE076AAC
:104B0000DFED407A9FED406AE7EE057AE6EE875AE0
:104B1000A7EE876A9FED3D5ADFED3D7ADFED3D6AF6
:104B2000A5EE875AE6EE077AE5EE076AF7EE005A39
:104B3000E7EE875A26EE877A9FED376ADFED377A00
:104B4000C7EE256AB0EE467AA0EE667A30EE470AE6
:104B500037EEC00A08BDB7EE007A30EE070AF6EE6F
:104B6000007A60EE277ADFED226A9FED226ADFEDA0
:104B7000224ADFED225A9FED225A9FED268AA7EEA8
:104B8000A66ADFED206AE6EE274AE7EEA56ADFEDCA
:104B90001E5A9FED1E6AA4EEA75AE6EEA75ADFED55
:104BA0001C6AA5EE276AE5EEA76AA6EE278AA6EE9E
:104BB000A77A28EE278AF0EE478AB0EE670A00F05F
:104BC000E9FF88EE286ADFED167AB0EE407AE7EE6C
:104BD000067A9FED140A77EE877AF0EE006AA7EE68
:104BE000E60A17E7DB0FC93F00000000DB0F494072
:104BF00008EF1138047F4F3A461124BD2EC69D3D63
:104C0000A80A4E3E613330BF2D57014090B0A6BE7A
:104C100039D119C0ABAA2A3E6821A233DA0FC93FA5
:104C20006821A2B3DA0F494038B510EE105A25F0CA
:104C30000044B4F17E5F2DED048B00F085807ADCBA
:104C4000B4F17C5F0FDAB4F1485F80F29C80DFED55
:104C5000697A70EE277AB7EE007AF4EEC77AF1EE51
:104C600010FA00F38D80FFF709FCF7EE007A37EEBB
:104C7000C00AB6EE008A20EE088A9FED5F7ADFED6B
:104C80005F6A9FED5F6A9FED5F5ADFED5F5ADFED70
:104C90005F8AE8EE076A9FED5E7AA8EE067A9FEDDE
:104CA0005D6AA6EE885AA7EE086A9FED5B7ADFED93
:104CB0005B6AE5EE085AA6EE087AE5EE886AE7EE4A
:104CC000087AE6EE888AB0EE480AB0EE679A00F0FD
:104CD00061FF534B9C4268EE888A42DC10EE103A2A
:104CE00023F47F6323F00F0306EE903AA6EEE68AE4
:104CF00070EE267A88EE895AC8EE274A9FED497AE7
:104D0000DFED497AB0EE006AA4EEC67A30EE000A12
:104D1000F0EE675AE6EEC65A90EE057A37EE657AFF
:104D200037EEC77A002D0ADCBDEC048BB1EE477A72
:104D3000B0EE470A38BD70EE407A87EEA77ABDEC38
:104D4000048BB0EE470A38BD9FED367ADFED377A37
:104D500020EE077ABDEC048BA0EE277AB0EE470A6E
:104D600038BD88EE896A9FED327ADFED307AA0EEA9
:104D7000060AF0EE006AA0EE267A37EEC77AD1E78F
:104D8000B0EE407ADBE760EE007A9FED1B7ADFED54
:104D90001B6A9FED1C6ADFED1A5A9FED1B5AE7EE66
:104DA000876ABDEC048BA6EEA76A9FED197ADFED4A
:104DB000196AA7EEA57AA6EE275AE7EE276ADFED75
:104DC000175A9FED156A9FED117AE5EE275AA6EE68
:104DD000A76AA5EEA77AF7EE006AE6EE276A67EE05
:104DE000277AB0EE407A87EEA66AA0EE067AB0EE99
:104DF000470A38BDCAF2497108EF1138047F4F3AAB
:104E00002EC69D3D461124BDA80A4E3EABAA2A3EA1
:104E1000613330BF2D57014039D119C090B0A6BEC3
:104E20009999793F2EBD3BB3DB0F493FDB0FC93F5B
:104E30002EBD3B3310B582B0CDED010A019B23F0AE
:104E40000042B2F1FF4FF0EE407A30DC10EE100A73
:104E500020F00041B1F1FF4F29DCB3F17E5F42D079
:104E60009C1704F0020444EAD07431B37AB3B2F16F
:104E7000FF4F40D0B1F1FF4F29D08A1AB2F1F45F51
:104E80004FEAE25134DA002B42DA3C3140DA9FED4E
:104E9000340A012C4ED0022C43D064B19FED317AFC
:104EA000DFED317A30EE070A30EE670A03E09DED60
:104EB000017A37EE270A02B010BD022C10D09FED08
:104EC0002B0A032C18BFB0EE670A02B010BD9FED8D
:104ED000280ADFED287A0028B8BFB0EE670AEAE7B3
:104EE0009FED210AE7E702B0BDE81040FFF7BAB92D
:104EF0009FED1F0ACDE7B1F1FF4F04F1FF3420D041
:104F0000022C26D81C4B03EB840494ED030AD2E751
:104F10009DED017A87EE870AFFF7B0FAFFF7A2F955
:104F2000B7E79FED107ADFED107A30EE070A37EE23
:104F3000C00AC0E710EE103A03F1004300EE103A49
:104F4000B9E7022C08D80C4B03EB840494ED000A5B
:104F5000B1E79FED030AAEE79FED080AABE700BF9C
:104F6000000000002EBDBB33DB0F4940DB0F49C002
:104F7000DB0FC93FDB0FC9BF286E0308DB0F493FBA
:104F800010EE103A23F00042B2F1FF4F52D84FEA30
:104F9000D37100F09380614883424EDC002BC0F255
:104FA00086805F4B9A424DD95E4B9A4200F29980BF
:104FB0005D4A02EB810292ED004A92ED027AC1F164
:104FC000010330EE444A5B1A34EE470ADFED577AAC
:104FD000DFED574A9FED575A9FED576ADFED575A5D
:104FE00060EE006AE6EEA74AA4EEA65AA5EE266A8F
:104FF000E6EE265AB0EE406AA5EEE66A002B47D0F0
:10500000F0EE006A60EE065A36EEC66AF7EE007AF7
:1050100085EE860A13F17D0F37EE400A30EE440A22
:1050200037EEC00A51DB10EE102A02EBC35300EE3C
:10503000103A704730EE000A70479FED410A20EEAB
:10504000000A7047B2F1465F0AD2DFED3D7A70EE9A
:10505000277AB7EE007AF4EEC77AF1EE10FA5ADC4E
:1050600060EE007A9FED317ADFED315A9FED316AC3
:10507000DFED316AE7EE875A9FED307AA7EEA56A39
:10508000E7EE866AB0EE406AA7EEA67AA7EEC76A98
:10509000F0EE007A60EE066A36EE676AB7EE007AE6
:1050A000C6EE867A37EEC00A37EE400A7047254BC7
:1050B0009A427FF676AF9FED240A7047DFED227AA1
:1050C000002918BFB0EE670A704710EE102A64334B
:1050D00002EBC353DFED1D7A00EE103A20EE270AF3
:1050E0007047114B9FED1A7A9FED1A6ADFED1A6A2D
:1050F00003EB8103D3ED047AE0EE077AB0EE404A89
:10510000FDEEE77AB8EEE77A17EE903AA7EE464A58
:1051100027EE267A58E730EE070A70471772B14239
:105120001872B13E9115853F406E03084CBB313378
:105130000EEADDB555B38A38610B36BBABAA2A3E01
:10514000CAF24971B5F1CF42000000000000800DA5
:105150003BAAB83F8071313FD1F7173730B583B0E4
:10516000CDED010A019D35F0004041D010EE10EA6E
:105170002EF00043B3F1FF4F3ADAB0F1FF4F37DCC6
:1051800083423BDB0EF000443AD01EF0FF4F56D175
:10519000190200296FF07D0204DD4900002902F1A7
:1051A000FF32FADC15F0FF4F57D101026FF07D0C92
:1051B00003D449000CF1FF3CFBD512F17E0F47DB15
:1051C000CEF3160343F400031CF17E0F3ADBC5F364
:1051D000160040F40000B2EB0C0204D117E00FD02F
:1051E0004B00013A13D0191A0029F8DA5B00F8E7EE
:1051F000DDED017A60EE277A87EEA70A03B030BDB5
:105200001D4B03EB547393ED000A03B030BD181A25
:1052100058BF03461BB9F3E75B000CF1FF3CB3F545
:10522000000FF9DB1CF17E0F1CDBA3F500030CF172
:105230007F0C234343EACC5300EE103ADEE7DA1545
:105240007F3AAFE76FF07D01A1EB0C018840C2E728
:105250006FF07D01891A8B40B6E74FEAE05CACF154
:105260007F0CAAE76FF07D02A2EB0C0C43FA0CF363
:10527000234300EE103AC1E7586E030808B510EE5C
:10528000103A33F000422DED028B2BD0002B32DB95
:10529000B3F1FF4F41DAB3F5000F35DB0021DA152A
:1052A0007F3A0A44D10FC1F17F0102EBD272C3F3FE
:1052B000160307EE902A43EAC15300EE103AB8EE07
:1052C000E78A01F033FADFED177A9FED177A20EEC7
:1052D000270ADFED167AA8EE070AA8EE270ABDEC2A
:1052E000028B08BDBDEC028B9FED117ADFED117AC8
:1052F00087EE270A08BDBDEC028B70EE407A9FED69
:105300000D7A87EE870A08BDDFED0B7A60EE277A0B
:105310006FF0180117EE903AC1E7BDEC028B30EE4A
:10532000000A08BDD95BDE3EDB27543580209A3E5B
:10533000000000CC000000000000004C2DE9F04708
:1053400010EE904A34F000482DED028B15D010EE8F
:10535000105A25F00047B7F1FF4F10EE109A06DD06
:10536000BDEC028BB948BDE8F04701F009B9B8F1CE
:10537000FF4F08DDB7F17E5FF2D1B7EE000ABDEC5A
:10538000028BBDE8F087002D10EE906AC0F2F48029
:105390004FF0000AB8F1FF4F00F00281B8F17E5FD4
:1053A00000F02881B6F1804F00F03D81B6F17C5FBE
:1053B00000EE105A40F00181B9F1000F80F23881FF
:1053C000FFF75CF8B7F1FF4F00F00981002F00F004
:1053D0000281B7F17E5F00F0F8804FEAD973013B9C
:1053E0005AEA030200F02A81B8F19A4F40F3508143
:1053F000974A974240F35982964A974200F3FF80BA
:10540000F7EE007A30EE670A9FED936ADFED935A6C
:10541000F5EE007AA0EE676AF6EE006AE6EE406A04
:1054200020EE007ADFED8E7A9FED8E6A27EE267AE7
:1054300067EEC77AE0EE257AF0EE676AE0EE066A7C
:1054400016EE902A22F47F6222F00F0207EE102A55
:10545000A0EE467A06EE902A77EEC77A26F47F66AB
:1054600026F00F0607EE104A06EE106A67EE877AFE
:1054700037EE466A07EE106AE6EE267A0AF1FF3A40
:105480005AEA030326EE877AB7EE000A77EE876AB8
:10549000BFEE006A16EE903A0CBFB0EE468AB0EE50
:1054A000408A002B23F0004240F3B581B2F1864FD1
:1054B00000F3F48100F0E781B2F17C5F00F3B78183
:1054C0000022104623F47F6323F00F0306EE103A08
:1054D000DFED656A9FED655A9FED652A9FED653AA0
:1054E000DFED653A9FED654ADFED654A36EE477AB6
:1054F000F0EE002A77EEC77A26EE267ADFED616AB3
:10550000A7EEA67AF0EE476AE6EE056A66EEA65AC0
:10551000F0EE667AA5EE823AE6EE457AB0EE636A80
:10552000A3EE256A77EE677AB0EE447AA6EE257A86
:10553000B0EE646AA7EE256AB0EE667AA6EE657AEA
:10554000E6EEA77A66EE875A37EE626AB7EE005A41
:1055500085EE867A77EE677A77EEE66A35EE660A4A
:1055600010EE103A1344B3F5000FC0F2B68100EE0E
:10557000103A20EE080A02E7B8F1974F1ADAB8F1AC
:105580007E5F0ADB4FEAE853C3F1960348FA03F261
:1055900002FA03F3434500F039814FF0000AFDE6BB
:1055A000B7F17E5F3FF4E9AE2FDD002E2ADB00EE7F
:1055B000104AE4E64FF0020AECE6FEF75FFFB7F1AF
:1055C000FF4F02D0002F7FF404AF002EBCBFF7EED8
:1055D000007A87EE800AB9F1000FBFF6D0AEA7F1CE
:1055E0007E5757EA0A0340F00A8170EE407A87EE50
:1055F000A70AC4E6002E0FDB00EE105ABFE6002E0D
:1056000000F356819FED200AB9E6002EFADA07EE84
:10561000904AB1EE670AB2E607EE105AF7EE007A4A
:1056200087EE870AABE607EE905A27EEA70AA6E6B2
:10563000BDEC028BBDE8F04700F0ACBA07EE905A23
:1056400077EEE77A87EEA70A99E600BF28F8030805
:10565000F7FF7F3F0700803FABAAAA3E70A5EC365C
:105660003BAAB83F00AAB83F8CBEBF350072313F9D
:105670004CBB31330EEADDB555B38A38610B36BB0E
:10568000ABAA2A3E1872313F000000000000804B98
:1056900019F0FF4F40F0F5805FED047A60EE277A55
:1056A0006FF0170217EE907A8D48F915C7F31607B9
:1056B0007F398742114447F07E5240F3DA808948AF
:1056C000874240F3FA809FED885A0131B0EE453AA7
:1056D000A2F50002F7EE005A002006EE102A76EE40
:1056E000257AB7EE007A87EE270A521042F0005270
:1056F00002F58022024476EE656A07EE901A66EEA5
:10570000803AB8EEE77A13EE901A07EE902A774ABD
:10571000DFED770A9FED778A9FED771ADFED772A25
:10572000DFED771A9FED772A77EEE55A114004EE08
:10573000901A36EE656A63EEA35AE4EEE76AF0EE7D
:10574000607AE5EE887AE4EEC66AA7EEA51A66EE00
:10575000806AE1EE252A73EEA47AE2EEA51A25EE20
:10576000A58AA1EEA52A67EEA67AB0EE084AB0EEA9
:10577000446AE8EE027AA4EEA46ADFED630A9FEDC4
:10578000631ADFED632A36EE276A16EE101A11400F
:1057900006EE101A76EE445AE4EEE45A77EEE57A15
:1057A00067EEA37AE6EE867AF0EE675AE4EE865A62
:1057B00015EE901A114006EE901AE4EEC66A05EE58
:1057C000901A77EEE67A67EEA07AE5EE817A77EEC8
:1057D000837AF0EE676AE5EEA26A76EE856A76EE87
:1057E000876A16EE901A114006EE901A36EEC77AC6
:1057F00037EE457AA5EEE27A77EEC77A2EE6BAF171
:10580000010F7FF4BCADB1EE400AB8E502F0010231
:10581000C2F1020AC2E53F498A4257DC7FF44CAE2E
:1058200076EEC76AF4EEE76AF1EE10FA4EDAD215B8
:105830004FF400017E3A41FA02F21A44C2F3C75112
:10584000354C7F390C41C2F3160022EA040206EE01
:10585000902A37EE667A40F40000C1F11701084142
:10586000002B77EE876AB8BF404216EE903AC20529
:1058700028E69FED1D5AF7EE005AB0EE453A00209B
:105880002BE7002210E79FED256A76EEC76A37EE18
:10589000866AB4EEE66AF1EE10FAC8DDDFED207A32
:1058A00028EE270A20EE270A69E5002EBFF6AAAEE9
:1058B0009FED1B0A20EE000A61E59FED1A5A9FED4D
:1058C0001A3AF7EE085A4FF4001006E7DFED177AA0
:1058D00028EE270A20EE270A51E500F0B5FE48E63B
:1058E00071C41C00D6B35D000000000000F0FFFF93
:1058F00055326C3E42F1533E05A38B3EABAAAA3E05
:10590000B76DDB3E9A99193F4F38763FA0C39D365D
:105910000038763F00001643FFFF7F003CAA383373
:10592000CAF2497100C0153FDCCFD1356042A20DEB
:1059300070B510EE103A894A23F00044944286B0C4
:10594000054670DD864A944210EE106A22DC002B78
:10595000DFED847A844A24F00F04B0EE407A40F3FD
:10596000E480944270EE677A09BFDFED806A9FEDB4
:10597000807A9FED807A77EEE67A012077EEC76A2B
:1059800077EEE67AC5ED006A77EEC77AC5ED017A63
:1059900006B070BD784A944254DDB4F1FF4F49DA45
:1059A000E215863AA4EBC25307EE903ABDEEE77AD1
:1059B000DFED726AB8EEC77A77EEC77A8DED037ABB
:1059C00067EEA67ABDEEE77AB8EEC77A77EEC77AC9
:1059D0008DED047A67EEA67AF5EE407AF1EE10FAD4
:1059E000CDED057A40F09080B5EE407AF1EE10FAF8
:1059F00014BF02230123624901910221009103A8EF
:105A0000294600F04DF9002EC2DA95ED007AD5ED69
:105A1000017AB1EE477AF1EE677A85ED007AC5ED4D
:105A2000017A4042B4E7002285ED000A426000207E
:105A300006B070BD70EE407A0020C5ED017AC5ED6C
:105A4000007AA5E7FEF71AFD9FED4E7A9FED456AB5
:105A5000F6EE007AE0EE077A9FED457AFDEEE77A02
:105A600017EE900AF8EEE76A1F28A6EEC60A66EE61
:105A7000877AB1EE666A1EDC434A411E24F0FF03BA
:105A800052F82120934216D030EE677A85ED007AE5
:105A900030EE470A002E30EE670A85ED010ABFF6A8
:105AA00077AFB1EE477AB1EE400A85ED007A85ED29
:105AB000010A40426CE730EE677AE21517EE103AC1
:105AC000C3F3C753C3EBD454082CDFDDDFED277AD3
:105AD0009FED287AF0EE405AE6EE275A30EE650A3E
:105AE000A6EE270AF0EE407AD6EE877A35EEE77A10
:105AF00017EE103AC3F3C753D21A192A06DCB0EED8
:105B0000650A85ED007AC3E7032374E79FED1F7AEA
:105B10009FED1F5AB0EE650AA6EE070A75EEC07A31
:105B2000E6EE077AD6EE857AAEE7944270EE277AF3
:105B300009BFDFED0E6A9FED0E7A9FED0E7A77EECC
:105B4000A67A4FF0FF3077EE876A77EEE67AC5EDFA
:105B5000006A77EE877AC5ED017A19E7D80F493FD9
:105B6000E3CB1640800FC93FD00FC93F0044353703
:105B70004344353708A3852E800F494300008043F6
:105B8000E06E030884F9223F606E030800A3852EAF
:105B900032318D24B1EEC00A704700BF10EE103ACA
:105BA00023F00043B3F1485F2CDAFDEEC07A17EE24
:105BB000903A002B60D020EE007ADFED317A9FED35
:105BC000315ADFED315A9FED316ADFED316AA7EED0
:105BD000275ADFED307AE7EE055AA7EE256AE7EEA1
:105BE000067AE7EE276A67EE266A60EEC00AF6EEEE
:105BF000007AE7EE260AB7EE000AD7EE270A30EE63
:105C0000600A704720EE007ADFED1D7A9FED1D5A85
:105C1000DFED1D5A9FED1D6ADFED1D6A1E4AA7EEDE
:105C2000275A9342DFED1B7AE5EE075AA5EE876A05
:105C3000E6EE077AE7EE876A66EE876AD5DD174AF1
:105C4000934214DC03F17F4307EE903AB7EE006A0B
:105C500036EE676A60EEC00AF6EE005AD7EE257A95
:105C6000E7EE260A77EEE00A36EE600A7047B6EEF7
:105C7000076AF5EE027AEDE7B7EE000A704700BF5B
:105C80004ED747ADF6740F317CF293B4010DD03787
:105C9000ABAA2A3D610BB6BA9999993E0000483FDC
:105CA0002DE9F04F2DED048BDBB01C4603930691DC
:105CB000A24B6899089253F82150111D824604F1B5
:105CC000FF38C0F2A382D31E48BF131DDB1002931E
:105CD0000133DB000793DDE907239B1A0593029B41
:105CE00015EB0801A3EB080316D401319FED947A5C
:105CF000699819441EAA002BA4BF50F8234007EE50
:105D0000904A03F10103ACBFF8EEE77AF0EE477A70
:105D10008B42E2EC017AEED1002DC0F2E782039BC8
:105D20001EAA02EB830446AE4FEA830C4046EF18EE
:105D30000AEB8301B8F1000FDFED817A09DB22461F
:105D40005346F3EC016A32ED017A8B42E6EE877A34
:105D5000F7D10130B842E6EC017A04F10404E9D14C
:105D600009AB0AAF03EB850907EB8503083B9FED01
:105D7000769ADFED748A059804930AEB0C0446AE1C
:105D800000955AAB03EB8503002D13ED140A4FEA7F
:105D9000850B16DD06EB85033A4660EE097AB0EE18
:105DA000407AFDEEE77A73ED016AF8EEE77AB342E6
:105DB000A7EEE87A37EEA60ABDEEC77AA2EC017A22
:105DC000EBD1019000F040FCB0EE408AB4EE000A46
:105DD00028EE000AFEF75AFBF2EE007AA0EE678A80
:105DE00001980028FDEEC89AF8EEE97A38EE678A45
:105DF00079DD05F1FF3EC0F1080357F82E1041FA96
:105E000003FC0CFA03F3CB1AC0F1070219EE901A47
:105E100043FA02F26144002A47F82E3009EE901A44
:105E200069DCB5EE408AF1EE10FA40F0C080009BCC
:105E300005F1FF3B5B4510DC05F18043013B07EBBF
:105E400083030021944653F804294B4541EA02019B
:105E5000F9D16246002940F0F280009B013B57F8DF
:105E60002330002B40F0E780049B4FF0010C53F8E7
:105E700004290CF1010C002AF9D06B1CAC449E469D
:105E8000039A5119029A02EB030B0BF1804B699AAA
:105E90000BF1FF3B06EB83051EAB02EB8B0B03EB19
:105EA0008101DBED017A9FED267AF8EEE77AB8F111
:105EB000000F0BF1040BC1ED007A0A4601F1040159
:105EC00009DB534601E072ED017AF3EC016AA3426B
:105ED000A6EEA77AF7D10EF1010EE645A5EC017A00
:105EE000DFDD65464DE740F09C806B1E57F82320B0
:105EF0001212002A95DD19EE903A002D03F10103EC
:105F000009EE903A40F39881396800297FD1012D3C
:105F100026D03B464FF0010C53F8041F00297AD0DD
:105F20000CF10103C1F580719D4247F82C1016DD7C
:105F300057F82310BB4407EB83030AE0F87103080A
:105F400000000000000080430000803B0000C93FCB
:105F50001968C1F1FF0143F8041B5B45F8D1012129
:105F600000280CDD012800F04881022807D105F146
:105F7000FF3C57F82C3003F03F0347F82C30022A3F
:105F80007FF44FAFB7EE000A30EE488A00293FF4A5
:105F900048AF0992019000F057FB38EE408A099A09
:105FA0000198B5EE408AF1EE10FA3FF440AF02924C
:105FB000DDE90732B0EE480A981A0195009D00F01D
:105FC00043FB1FED207AB4EEC70AF1EE10FADDE9CB
:105FD0000132C0F259815FED247A059960EE277A8B
:105FE0000831FDEEE77A0591F8EEE77A03F1010B4F
:105FF000A7EEC70AFDEEE77ABDEEC00A10EE101A52
:1060000047F8231017EE903A47F82B302EE0012383
:106010004FF0000C86E70CF1010CAC457FF47CAF2F
:106020009EE7F6EE007AB4EEE78AF1EE10FA80F21F
:10603000F2800022F5E66B1C9E469C4620E70599FF
:10604000A1F1080057F82B1005902B46009D69B967
:1060500003F18043023B07EB8303014653F8040935
:106060000BF1FF3B08390028F8D005910598009204
:10607000B7EE000A00F0E8FABBF1000F009AC0F298
:1060800028814FEA8B0E46AB03EB0E060EF1040C93
:106090001FED537A07EB0C03311D73ED017AF8EE17
:1060A000E77ABB4267EE807A20EE070A61ED017A5B
:1060B000F3D1002D1FED5B6A4FF0000420DB934805
:1060C000DFED937AB0EE467A3146002303E09C423E
:1060D00008DBB0EC017AF1EC016A01339D42E6EE97
:1060E000877AF4DA5AAB03EB8403A34543ED287AAD
:1060F000A6F1040604F1010305D0002D1C46DEDAEA
:10610000DFED837AEEE7689902291CDC002900F3B1
:1061100095800FD132ABDFED7E7A9C443CED017A65
:10612000634577EE877AF9D10AB1F1EE677A069B7B
:10613000C3ED007A19EE903A03F007005BB0BDECB6
:10614000048BBDE8F08F689B032BF3D1BBF1000FEC
:1061500000F0D4800EF5B4736B4432A913ED287AA5
:1061600001EB8B0373ED017AF0EE476A37EE277A85
:10617000994277EEC77A83ED007A77EEA67AC3ED7F
:10618000017AEFD1BBF1010F40F3B8800BF1804BE6
:106190000EF5B4730BF1FF3B0DEB030E4FEA8B0BC7
:1061A0000BF104031EED287A0B4433A873ED017A3A
:1061B000F0EE476A37EE277A984277EEC77A83ED9A
:1061C000007A77EEA67AC3ED017AEFD10BF1080BD6
:1061D000DFED4F7A01EB0B03083133ED017A994281
:1061E00077EE877AF9D1002A56D10699329A339BF5
:1061F0000A604B60C1ED027A9CE705F1FF3C57F85D
:106200002C3003F07F0347F82C30B8E608230793BF
:10621000002302935FE519EE903A002D03F101038C
:1062200009EE903AC8BF02223FF76EAEF7EE007A51
:1062300037EEC88A0222F4E5002191E632A9DFEDAB
:10624000347A01EB830333ED017A994277EE877A52
:10625000F9D19DED327A8ABB069BBBF1000FC3EDED
:10626000007A77EE677A0BDD33A90123B1EC017A6E
:1062700001339B4577EE877AF8DA0AB1F1EE677A57
:10628000069BC3ED017A55E7BDEEC00A9B4610EEB2
:10629000101A47F82310E9E6DDED326A9DED337AF6
:1062A000069BF1EE666AB1EE477AF1EE677AC3EDCE
:1062B000006A83ED017AC3ED027A3BE7069BF1EEBB
:1062C000676ABBF1000F77EE677AC3ED006ACBDC3B
:1062D000D4E7689B022B0DDC002B14DC7FF42AAF83
:1062E000DFED0B7A002A3FF422AF1EE7039B4FEA53
:1062F000830C35E5689B032B7FF41CAFDFED047A3C
:10630000002AC9D171E7DFED027AA2E7087203081B
:106310000000000010EE103A23F00043B3F1485F94
:1063200004DAFDEEC07A17EE903A5BB360EE007AC5
:106330009FED157ADFED155A9FED156ADFED156AB1
:10634000E7EE875A9FED147AA5EEA76A20EE275A4A
:10635000E6EE276AA6EEA77A30B9DFED106AE7EE1F
:10636000876AA6EE850A704727EE457AF6EE006A40
:10637000A0EEA67ADFED0A6AD7EE270AE5EE260A36
:1063800030EE600A704700BFD3C92E2F342FD7B22A
:106390001BEF3836010D50B98988083CABAA2ABEDC
:1063A000ABAA2A3E08B510EE103A23F00042B2F133
:1063B000465FF0EE407A0FDABDEEC07A17EE101AA3
:1063C00001BB431C134300F0A080012803D0BFEEA3
:1063D000007A87EE270A08BD50498A4212DB002B5B
:1063E000B8BFF1EE407A9FED4E7A9FED4E0AB8BFEE
:1063F000F1EE600A70EE677A37EE600ADFED4A0A66
:1064000070EE277A67EEA76ADFED484ADFED485A5B
:106410009FED485A9FED486A404926EEA67A8A4287
:10642000E7EE245AA7EE056ADFED444A9FED445A91
:10643000E5EE874AA6EE075ADFED425A9FED426A23
:10644000E4EE875AA5EE076ADFED404A9FED405A19
:10645000E5EE874AA6EE075A9FED3E6ADFED3E5A0B
:10646000A4EE876AE5EE075AB0EE467AA5EEA67A64
:1064700027EEA65AB0EE606AA7EE056ADFED374A4E
:10648000E6EE260AE5EE240A37EEA00A1FDA012816
:10649000A1D0BFEE007AC7EE006A314B10EE102A91
:1064A0001A4006EE102A16EE902A76EE677A13400E
:1064B00000EE103AB7EE007A70EEE70AF0EE477A97
:1064C000E6EE007AE0EE807AA7EEA60A08BD07EEB7
:1064D000100AB8EEC77A60EE005A30EE070A9B1732
:1064E000C5EE806A03F00203C3F10103B0EE006A57
:1064F00076EEE00A00EE103A77EEE07AB8EEC00AE7
:10650000A7EEC67A20EE070A08BDFDF7B7FFB7EE83
:10651000007AF0EE407A87EE270A08BD40A12C3FB2
:1065200068212233DA0F493F000000005FAE9BB7BD
:1065300045F4A3388453D9377AC09538C8261A3A17
:10654000B937813916696B3B48DEBE3AA427B33CA4
:106550001F37113C8988083ED10D5D3DABAAAA3E8C
:1065600000F0FFFF82B08DED010A019820F000409D
:10657000B0F1FF4FACBF0020012002B0704700BF58
:106580009FED010A704700BF0000C07F10EE101A97
:10659000C1F3C753A3F17F02162A21F0004325DC83
:1065A00053B3002A82B04FEAD17026DB244B13414B
:1065B000194219D04FEA530C11EA530307D04FF494
:1065C000001321EA0C0113410B4300EE103A1D4B5E
:1065D00003EB8003D3ED007A37EE800A8DED010ADC
:1065E0009DED010A30EE670A02B07047B3F1FF4F2C
:1065F00002D330EE000A70477047124AC1F3160307
:106600005B4202EB80005B0A0A0D03F48003120573
:10661000134307EE903AD0ED006A36EEA77A01F008
:1066200000418DED017ADDED017A77EEE67A17EE25
:10663000903A23F000430B4300EE103AD4E700BF3A
:10664000FFFF7F003072030882B08DED010A019BCD
:1066500033F000422AD0B2F1FF4F23D213F0FF4FA4
:1066600028D19DED017ADFED2A7A2A4B67EE277A51
:106670009842CDED017A37DB019BC3F3C752193A3B
:106680000244FE2A1ADD9FED240A9FED247A019B25
:10669000002BF0EE407AB8BFB0EE470A20EE270A92
:1066A00002B0704730EE000A02B070479DED010A5B
:1066B00002B07047D20D0244FE2AE4DC002A0BDC53
:1066C00012F1160F17DA4CF250339842DBDC9FEDD3
:1066D000140A9FED147ADAE723F0FF4343EAC2532A
:1066E00000EE103A02B070479FED0D0ADDED017A21
:1066F00027EE800AD8E7193223F0FF4343EAC2535A
:10670000DFED097A07EE103A27EE270ACCE700BF43
:106710000000004CB03CFFFFCAF24971CAF249F1D7
:106720006042A20D6042A28D0000003310EE103ACC
:1067300033F000422ED0002B33DBB3F1FF4F40DAB1
:10674000B3F5000F34DB4FF0000C6848C3F31601BB
:10675000084400F4000282F07E520A43DB1500EE8A
:10676000102A7F3B624A634401F10F0CF7EE007A76
:106770000CEA020230EE670A03EBD05322BBB5EEFF
:10678000400AF1EE10FA60D1002B40F092809FEDAC
:10679000590A70479FED587ADFED567A87EE270A3F
:1067A000704770EE407A9FED537A87EE870A704704
:1067B000DFED527A60EE277A6FF0180C17EE903A00
:1067C000C3E730EE000A7047F0EE007A70EE277AE9
:1067D00007EE103A80EE274A4948C1F5571208449F
:1067E00002F522720243002A9FED463ADFED464A47
:1067F000DFED465ADFED463A9FED465ADFED467A29
:10680000DFED466A24EE046AF8EEC72A26EE067A21
:10681000E7EE034AA7EE235AE4EE875AE5EE076A4D
:10682000E5EE877A67EE867AE6EE877A2ADDB6EEBF
:10683000007A20EE077A27EE007A4BBB77EE877A54
:10684000A7EEC47A30EE470A7047B6EE007ADFED65
:10685000346AF0EE477AE0EE667A20EE007A27EEB0
:10686000277A002BEED007EE903A9FED2E6ADFEDEF
:106870002E6AF8EEE77AA7EEC67A37EE400A97EE70
:10688000A60A704713BB70EE677AA7EEC40A70477A
:10689000DFED246A9FED246A77EE877A62EEA66ABE
:1068A000E7EE846A37EE667A37EE400A92EE860AA1
:1068B000704707EE903A9FED1B0A9FED1B7AF8EEAA
:1068C000E77A27EE800AA7EE870A70479FED157AD0
:1068D000DFED156A70EE677A27EE627AA7EE847AAA
:1068E00037EE400A92EEA60A704700BF20FB4A002E
:1068F000F0FF7F0000000000000000CC0000004C12
:10690000305CCFFF9788173E25333A3E2549923EAB
:106910004FD01C3E298E633EABAA2A3FCDCCCC3E45
:10692000ABAAAA3ED1F717378071313F014B1868E7
:10693000704700BF08000020032A70B515D940EA4F
:10694000010C1CF0030F04460B4621D119462046CA
:106950000E680568B54204F1040403F1040317D17D
:10696000043A032A20461946F0D8541EA2B100F179
:10697000FF3C013901E0C3180CD01CF801EF11F8FD
:10698000012F9645A4EB0C03F5D0AEEB020070BDD1
:10699000541EECE7184670BD104670BD844641EAAF
:1069A000000313F003036DD1403A41D351F8043B87
:1069B00040F8043B51F8043B40F8043B51F8043BD9
:1069C00040F8043B51F8043B40F8043B51F8043BC9
:1069D00040F8043B51F8043B40F8043B51F8043BB9
:1069E00040F8043B51F8043B40F8043B51F8043BA9
:1069F00040F8043B51F8043B40F8043B51F8043B99
:106A000040F8043B51F8043B40F8043B51F8043B88
:106A100040F8043B51F8043B40F8043B51F8043B78
:106A200040F8043B51F8043B40F8043B403ABDD2E7
:106A3000303211D351F8043B40F8043B51F8043B89
:106A400040F8043B51F8043B40F8043B51F8043B48
:106A500040F8043B103AEDD20C3205D351F8043B18
:106A600040F8043B043AF9D2043208D0D2071CBFE4
:106A700011F8013B00F8013B01D30B88038060460D
:106A8000704700BF082A13D38B078DD010F0030383
:106A90008AD0C3F10403D21ADB071CBF11F8013BF3
:106AA00000F8013B80D331F8023B20F8023B7BE742
:106AB000043AD9D3013A11F8013B00F8013BF9D26D
:106AC0000B7803704B7843708B7883706046704707
:106AD000830730B548D0541E002A3FD0CAB20346BF
:106AE00001E0013C3AD303F8012B9D07F9D1032CB7
:106AF0002DD9CDB245EA05250F2C45EA054536D9F5
:106B0000A4F1100222F00F0C03F1200EE6444FEA2C
:106B1000121C03F1100242E9045542E902551032F9
:106B20007245F8D10CF1010214F00C0F03EB0212C4
:106B300004F00F0C13D0ACF1040323F0030304336F
:106B4000134442F8045B9342FBD10CF003042CB1D4
:106B5000CAB21C4403F8012B9C42FBD130BD6446F1
:106B60001346002CF4D1F9E703461446BFE71A4652
:106B7000A446E0E7024B1B680022C3E92A027047E3
:106B8000080000200B4A0C4910B414680B4AD4E9E1
:106B90002A0300FB02F201FB0322A0FB0101431CBC
:106BA00042EB0100C4E92A3020F000405DF8044BBC
:106BB000704700BF080000202D7F954C2DF45158E0
:106BC000830710B5044610D10268A2F1013323EA0D
:106BD000020313F0803F08D150F8042FA2F10133D3
:106BE00023EA020313F0803FF6D003781BB110F8BC
:106BF000013F002BFBD100F0E1F9204610BD00BFA2
:106C000011F0FF01034644D0820732D110B5046869
:106C100041EA012E4EEA0E4E8EEA0402A2F1013341
:106C200023EA0203A4F1013222EA0402134313F01F
:106C3000803F0FD150F8044F84EA0E0CA4F10133C9
:106C4000ACF1013223EA040322EA0C02134313F0ED
:106C5000803FEFD0037823B936E010F8013F002BD6
:106C600032D09942F9D110BD8A4211D09A07184604
:106C7000CCD0184613F8012B002AF5D110467047E6
:106C80009907184607D0184601330278002AF7D131
:106C900070478207F7D10268A2F1013323EA0203A9
:106CA00013F0803F08D150F8042FA2F1013323EAFA
:106CB000020313F0803FF6D00378002BE8D010F8E1
:106CC000013F002BFBD17047184610BD00000000AB
:106CD00000000000000000000000000000000000B4
:106CE000A2EB0300704700BF02780B78012A28BF8F
:106CF0009A42F5D16DE9044540EA0104CDE9026705
:106D00006FF0000C4FEA447212B380EA010414F0F1
:106D1000070F6AD100F0070420F0070004F0030514
:106D200021F007014FEAC505F0E8042314F0040F31
:106D3000F1E804670CFA05F462EA040266EA040664
:106D40000AD063EA0403624667EA0407664603E082
:106D5000F0E80423F1E8046782FA4CF582EA0604BD
:106D6000A4FA8CF46CBB83FA4CF583EA0705A5FA08
:106D70008CF595B950E9022351E9026782FA4CF586
:106D800082EA0604A4FA8CF483FA4CF583EA070538
:106D9000A5FA8CF52543DBD09CB92DBAB5FA85F45C
:106DA00024F0070427FA04F1DDE9026723FA04F36B
:106DB00003F0FF0001F0FF01FDE80445A0EB010036
:106DC000704724BAB4FA84F424F0070426FA04F1D4
:106DD000DDE9026722FA04F202F0FF0001F0FF0190
:106DE000FDE80445A0EB0100704714F0030F3CD10F
:106DF00010F0030428D150F8082B51F8083B82FA10
:106E00004CF582EA0305A5FA8CF55DB950F8042C1F
:106E100051F8043C82FA4CF582EA0305A5FA8CF598
:106E2000002DE8D02DBAB5FA85F424F0070423FA32
:106E300004F122FA04F202F0FF0001F0FF01FDE884
:106E40000445A0EB010070474FEAC40420F00300A2
:106E500050F8082B21F0030151F8083B0CFA04F418
:106E600062EA040263EA0403C9E710F003041AD0DB
:106E7000A1EB040120F00300E40750F8042B06D036
:106E80000FD28B785FFAA2F4E41A06D12BB1CB783B
:106E90005FFAB2F4E41A00D11BB920465DF8104B3A
:106EA000704701F1040150F8042BCC0721F00301D5
:106EB00051F8043B48D824D222F07F4482FA4CF5A2
:106EC00094EA1325A5FA8CF50AD165B951F8043B6B
:106ED00084EA0204B4EB036F0ED150F8042BEBE705
:106EE0004FEA132355E035F07F454DD10878FDE892
:106EF0000445C0F1000070474FEA126203F0FF033F
:106F000047E002EA1C4482FA4CF594EA1345A5FADC
:106F10008CF50AD165B951F8043B84EA0204B4EB5C
:106F2000034F0CD150F8042BEBE74FEA134330E04A
:106F300015EA1C4528D10B884FEA124229E04FEA96
:106F4000124203EA1C4324E002F0FF0482FA4CF5EB
:106F500094EA1365A5FA8CF50AD165B951F8043B9A
:106F600084EA0204B4EB032F09D150F8042BEBE7B9
:106F70004FEA13630DE015F0FF0F05D10B684FEAE0
:106F8000122223F07F4304E04FF00000FDE80445A7
:106F9000704712BA1BBA82FA4CF482EA0304A4FACC
:106FA0008CF5B5FA85F402FA04F203FA04F34FEA19
:106FB0001260FDE80445A0EB1360704780EA01020F
:106FC000844612F0030F4FD111F0030F32D14DF868
:106FD000044D11F0040F51F8043B0BD0A3F1013222
:106FE0009A4312F0803F04BF4CF8043B51F8043B35
:106FF00016D100BF51F8044BA3F101329A4312F0AD
:10700000803FA4F101320BD14CF8043BA24312F0B3
:10701000803F04BF51F8043B4CF8044BEAD02346B0
:107020000CF8013B13F0FF0F4FEA3323F8D15DF862
:10703000044B704711F0010F06D011F8012B0CF82A
:10704000012B002A08BF704711F0020FBFD031F8A2
:10705000022B12F0FF0F16BF2CF8022B8CF8002029
:1070600012F47F4FB3D1704711F8012B0CF8012BAC
:10707000002AF9D1704700BF0000000000000000A6
:1070800090F800F06DE9024520F007016FF0000C68
:1070900010F0070491F820F040F049804FF0000410
:1070A0006FF00700D1E9002391F840F000F10800EB
:1070B00082FA4CF2A4FA8CF283FA4CF3A2FA8CF323
:1070C0004BBBD1E9022382FA4CF200F10800A4FA8A
:1070D0008CF283FA4CF3A2FA8CF3E3B9D1E90423DE
:1070E00082FA4CF200F10800A4FA8CF283FA4CF315
:1070F000A2FA8CF37BB9D1E9062301F1200182FACF
:107100004CF200F10800A4FA8CF283FA4CF3A2FAD4
:107110008CF3002BC6D0002A04BF04301A4612BAE2
:10712000B2FA82F2FDE8024500EBD2007047D1E9E5
:10713000002304F00305C4F100004FEAC50514F074
:10714000040F91F840F00CFA05F562EA05021CBF45
:1071500063EA050362464FF00004A9E7A2B330B525
:1071600040EA0104A40784460B462AD09CF800009C
:107170000C7884422FD1012A0DD0E64660B11EF86A
:10718000010F11F8014F6FEA0E03A042134422D100
:107190001CEB0303F2D1002030BD0468194653F8FC
:1071A000045BA4F1013EAC4284462EEA040E00F1D9
:1071B00004000BD1043A84461946ECD01EF0803FFF
:1071C000E9D1032AE9D8D1E7104670479CF80000BE
:1071D0000C78A042D1D0001B30BD00BF30B540EAD2
:1071E0000104A30701D1032A0FD8844601F1FF3E11
:1071F00007E01EF8011F03F8011B541EC1B19C4695
:1072000022466346002AF4D130BD0B468446194617
:1072100053F8045BA5F1013424EA050414F0803F1F
:10722000E4D1043A032A4CF8045B1946EFD8DDE7B1
:107230006244002CE8D003F8011B9342FBD130BD1F
:10724000024A126801235C3200F002B808000020F4
:10725000F0B4074610B33E468C4616F8010B01E029
:10726000A04216D01CF8014B002CF9D1D8B116F869
:10727000015B0C4601E0002BF9D014F8013B9D4264
:10728000F9D14DB1002306F8013C16603846F0BC38
:1072900070475BB13746DEE72E46F6E71768002FEA
:1072A000D9D13846F3E7F0BC106070471660384615
:1072B0003B70ECE70123FFF7CBBF00BF2DE9F04F98
:1072C000814645488E4675461EF801CB10F80C40A5
:1072D00014F00804F7D1BCF12D0FE34654D0BCF1F3
:1072E0002B0F08BF9EF800B06FF0004808BF05F1F3
:1072F000020E1BB1102B4FD01F4604E0BBF1300F24
:1073000055D00A231F460025B8FBF7F6284607FB91
:10731000168A07E0864215D329D007FB00C0012555
:107320001EF801BBABF1300CBCF1090F06D9ABF173
:10733000410CBCF1190F08D8ABF1370C63450DDDDA
:10734000002DE7DA4FF0FF35EAE7ABF1610CBCF155
:10735000190F03D8ABF1570C6345F1DC002D0BDBA3
:1073600004B140420AB195BB1160BDE8F08FE2451F
:10737000D3DA4FF0FF35D3E72223C9F800301AB330
:107380000EF1FF314046EFE79EF800B04FF00048A5
:1073900005F1020E0124ACE7BBF1300FACD19EF831
:1073A000000000F0DF00582807D01F46ABE79EF82A
:1073B000003003F0DF03582B0BD110279EF801B0EB
:1073C0003B460EF1020E9EE74046BDE8F08F804638
:1073D000D6E708231F4696E739720308012B02D02F
:1073E000242B00D86AE710B5FFF7A0FA1623036034
:1073F000002010BD012A08D0242A06D88446064859
:10740000134600680A46614658E710B5FFF78EFA42
:1074100016230360002010BD08000020012A08D0B8
:10742000242A06D884460648134600680A46614660
:1074300044E710B5FFF77AFA16230360002010BD69
:107440000800002081F0004102E000BF83F000430B
:1074500030B54FEA41044FEA430594EA050F08BFEF
:1074600090EA020F1FBF54EA000C55EA020C7FEAB3
:10747000645C7FEA655C00F0E2804FEA5454D4EB30
:107480005555B8BF6D420CDD2C4480EA020281EAFA
:10749000030382EA000083EA010180EA020281EA32
:1074A0000303362D88BF30BD11F0004F4FEA013184
:1074B0004FF4801C4CEA113102D0404261EB410193
:1074C00013F0004F4FEA03334CEA133302D0524219
:1074D00063EB430394EA050F00F0A780A4F10104D5
:1074E000D5F1200E0DDB02FA0EFC22FA05F280180F
:1074F00041F1000103FA0EF2801843FA05F35941F5
:107500000EE0A5F120050EF1200E012A03FA0EFC73
:1075100028BF4CF0020C43FA05F3C01851EBE3719D
:1075200001F0004507D54FF0000EDCF1000C7EEBBA
:1075300000006EEB0101B1F5801F1BD3B1F5001FF8
:107540000CD349085FEA30004FEA3C0C04F1010417
:107550004FEA445212F5800F80F09A80BCF1004F40
:1075600008BF5FEA500C50F1000041EB045141EAC2
:10757000050130BD5FEA4C0C404141EB0101013C8B
:1075800028BFB1F5801FE9D291F0000F04BF01467A
:107590000020B1FA81F308BF2033A3F10B03B3F14C
:1075A00020020CDA0C3208DD02F1140CC2F10C02DC
:1075B00001FA0CF021FA02F10CE002F11402D8BF3A
:1075C000C2F1200C01FA02F120FA0CFCDCBF41EA06
:1075D0000C019040E41AA2BF01EB0451294330BDD5
:1075E0006FEA04041F3C1CDA0C340EDC04F11404B2
:1075F000C4F1200220FA04F001FA02F340EA030089
:1076000021FA04F345EA030130BDC4F10C04C4F1CE
:10761000200220FA02F001FA04F340EA03002946AE
:1076200030BD21FA04F0294630BD94F0000F83F4F8
:10763000801306BF81F480110134013D4EE77FEADB
:10764000645C18BF7FEA655C29D094EA050F08BF27
:1076500090EA020F05D054EA000C04BF1946104608
:1076600030BD91EA030F1EBF0021002030BD5FEA4C
:10767000545C05D14000494128BF41F0004130BD74
:1076800014F580043CBF01F5801130BD01F00045C8
:1076900045F0FE4141F470014FF0000030BD7FEA3B
:1076A000645C1ABF194610467FEA655C1CBF0B4636
:1076B000024650EA013406BF52EA033591EA030F4D
:1076C00041F4002130BD00BF90F0000F04BF002145
:1076D000704730B54FF4806404F132044FF0000578
:1076E0004FF0000150E700BF90F0000F04BF0021F1
:1076F000704730B54FF4806404F1320410F0004557
:1077000048BF40424FF000013EE700BF42004FEA51
:10771000E2014FEA31014FEA02701FBF12F07F43CE
:1077200093F07F4F81F06051704732F07F4208BF85
:10773000704793F07F4F04BF41F40021704730B58C
:107740004FF4607401F0004521F000411CE700BFD8
:1077500050EA010208BF704730B54FF000050AE05B
:1077600050EA010208BF704730B511F0004502D55C
:10777000404261EB41014FF4806404F132045FEA5E
:10778000915C3FF4D8AE4FF003025FEADC0C18BF07
:1077900003325FEADC0C18BF033202EBDC02C2F1F9
:1077A000200300FA03FC20FA02F001FA03FE40EA8B
:1077B0000E0021FA02F11444BDE600BF70B54FF08F
:1077C000FF0C4CF4E06C1CEA11541DBF1CEA13556D
:1077D00094EA0C0F95EA0C0F00F0DEF82C4481EAD5
:1077E000030621EA4C5123EA4C5350EA013518BFF5
:1077F00052EA033541F4801143F4801338D0A0FBE2
:1078000002CE4FF00005E1FB02E506F00042E0FB8E
:1078100003E54FF00006E1FB03569CF0000F18BF94
:107820004EF0010EA4F1FF04B6F5007F64F540743C
:1078300004D25FEA4E0E6D4146EB060642EAC621CF
:1078400041EA55514FEAC52040EA5E504FEACE2E3C
:10785000B4F1FD0C88BFBCF5E06F1ED8BEF1004F3F
:1078600008BF5FEA500E50F1000041EB045170BDBB
:1078700006F0004646EA010140EA020081EA0301FF
:10788000B4EB5C04C2BFD4EB0C0541EA045170BDFB
:1078900041F480114FF0000E013C00F3AB8014F175
:1078A000360FDEBF002001F0004170BDC4F10004BE
:1078B000203C35DA0C341BDC04F11404C4F120053F
:1078C00000FA05F320FA04F001FA05F240EA02009A
:1078D00001F0004221F0004110EBD37021FA04F6D0
:1078E00042EB06015EEA430E08BF20EAD37070BD8A
:1078F000C4F10C04C4F1200500FA04F320FA05F0E9
:1079000001FA04F240EA020001F0004110EBD370EA
:1079100041F100015EEA430E08BF20EAD37070BD5A
:10792000C4F1200500FA05F24EEA020E20FA04F333
:1079300001FA05F243EA020321FA04F001F00041E2
:1079400021FA04F220EA020000EBD3705EEA430E53
:1079500008BF20EAD37070BD94F0000F0FD101F082
:107960000046400041EB010111F4801F08BF013CBB
:10797000F7D041EA060195F0000F18BF704703F0F9
:107980000046520043EB030313F4801F08BF013D80
:10799000F7D043EA0603704794EA0C0F0CEA13553C
:1079A00018BF95EA0C0F0CD050EA410618BF52EAF6
:1079B0004306D1D181EA030101F000414FF00000FC
:1079C00070BD50EA410606BF1046194652EA43060A
:1079D00019D094EA0C0F02D150EA013613D195EA7E
:1079E0000C0F05D152EA03361CBF104619460AD1C6
:1079F00081EA030101F0004141F0FE4141F47001D0
:107A00004FF0000070BD41F0FE4141F4780170BDBF
:107A100070B54FF0FF0C4CF4E06C1CEA11541DBF24
:107A20001CEA135594EA0C0F95EA0C0F00F0A7F826
:107A3000A4EB050481EA030E52EA03354FEA013153
:107A400000F088804FEA03334FF0805545EA131366
:107A500043EA12634FEA022245EA111545EA10652E
:107A60004FEA00260EF000419D4208BF964244F1C5
:107A7000FD0404F5407402D25B084FEA3202B61AE4
:107A800065EB03055B084FEA32024FF480104FF4B8
:107A9000002CB6EB020E75EB030E22BFB61A75462C
:107AA00040EA0C005B084FEA3202B6EB020E75EBBF
:107AB000030E22BFB61A754640EA5C005B084FEA27
:107AC0003202B6EB020E75EB030E22BFB61A7546F4
:107AD00040EA9C005B084FEA3202B6EB020E75EBFF
:107AE000030E22BFB61A754640EADC0055EA060EC0
:107AF00018D04FEA051545EA16754FEA06164FEA03
:107B0000C30343EA52734FEAC2025FEA1C1CC0D1AE
:107B100011F4801F0BD141EA00014FF000004FF03B
:107B2000004CB6E711F4801F04BF01430020B4F1FC
:107B3000FD0C88BFBCF5E06F3FF6AFAEB5EB030CB4
:107B400004BFB6EB020C5FEA500C50F1000041EBB1
:107B5000045170BD0EF0004E4EEA113114EB5C047E
:107B6000C2BFD4EB0C0541EA045170BD41F4801151
:107B70004FF0000E013C90E645EA060E8DE60CEA59
:107B8000135594EA0C0F08BF95EA0C0F3FF43BAF76
:107B900094EA0C0F0AD150EA01347FF434AF95EA2D
:107BA0000C0F7FF425AF104619462CE795EA0C0F11
:107BB00006D152EA03353FF4FDAE1046194622E7DE
:107BC00050EA410618BF52EA43067FF4C5AE50EAB8
:107BD00041047FF40DAF52EA43057FF4EBAE12E7A8
:107BE0004FF0FF3C06E000BF4FF0010C02E000BF89
:107BF0004FF0010C4DF804CD4FEA410C7FEA6C5C6C
:107C00004FEA430C18BF7FEA6C5C1BD001B050EA0E
:107C1000410C0CBF52EA430C91EA030F02BF90EAF9
:107C2000020F0020704710F1000F91EA030F58BFB8
:107C3000994208BF90422CBFD8176FEAE37040F01A
:107C4000010070474FEA410C7FEA6C5C02D150EAB8
:107C5000013C07D14FEA430C7FEA6C5CD6D152EA73
:107C6000033CD3D05DF8040B704700BF8446104638
:107C700062468C461946634600E000BF01B5FFF737
:107C8000B7FF002848BF10F1000F01BD4DF808ED07
:107C9000FFF7F4FF0CBF012000205DF808FB00BFD8
:107CA0004DF808EDFFF7EAFF34BF012000205DF832
:107CB00008FB00BF4DF808EDFFF7E0FF94BF01207F
:107CC00000205DF808FB00BF4DF808EDFFF7CEFF80
:107CD00094BF012000205DF808FB00BF4DF808EDBF
:107CE000FFF7C4FF34BF012000205DF808FB00BF90
:107CF0004A0011D212F5001211D20DD56FF478732B
:107D0000B3EB62520ED44FEAC12343F0004343EA7F
:107D1000505323FA02F070474FF00000704750EACA
:107D2000013002D14FF0FF3070474FF00000704734
:107D30004FEA4102B2F1E04324BFB3F5001CDCF18D
:107D4000FE5C0DD901F0004C4FEAC0024CEA5070C5
:107D5000B2F1004F40EB830008BF20F001007047F4
:107D600011F0804F21D113F13872BCBF01F00040F7
:107D7000704741F480114FEA5252C2F11802C2F129
:107D8000200C10FA0CF320FA02F018BF40F00100AA
:107D90004FEAC1234FEAD32303FA0CFC40EA0C005C
:107DA00023FA02F34FEA4303CCE77FEA625307D199
:107DB00050EA01331EBF4FF0FE4040F440007047D0
:107DC00001F0004040F0FE4040F40000704700BF6A
:107DD00080F0004002E000BF81F0004142001FBF80
:107DE0005FEA410392EA030F7FEA226C7FEA236C89
:107DF0006AD04FEA1262D2EB1363C1BFD21841407E
:107E000048404140B8BF5B42192B88BF704710F013
:107E1000004F40F4000020F07F4018BF404211F0B6
:107E2000004F41F4000121F07F4118BF494292EA1E
:107E3000030F3FD0A2F1010241FA03FC10EB0C004A
:107E4000C3F1200301FA03F100F0004302D54942D7
:107E500060EB4000B0F5000F13D3B0F1807F06D384
:107E600040084FEA310102F10102FE2A51D2B1F17C
:107E7000004F40EBC25008BF20F0010040EA030071
:107E80007047490040EB0000013A28BFB0F5000FF1
:107E9000EDD2B0FA80FCACF1080CB2EB0C0200FAA7
:107EA0000CF0AABF00EBC25052421843BCBFD040F6
:107EB0001843704792F0000F81F4000106BF80F470
:107EC00000000132013BB5E74FEA41037FEA226C33
:107ED00018BF7FEA236C21D092EA030F04D092F0FE
:107EE000000F08BF0846704790EA010F1CBF002032
:107EF000704712F07F4F04D1400028BF40F000408F
:107F0000704712F100723CBF00F50000704700F0AE
:107F1000004343F0FE4040F4000070477FEA2262D5
:107F200016BF08467FEA23630146420206BF5FEAA6
:107F3000412390EA010F40F4800070474FF00003A6
:107F400004E000BF10F0004348BF40425FEA000C6D
:107F500008BF704743F0964301464FF000001CE015
:107F600050EA010208BF70474FF000030AE000BF6B
:107F700050EA010208BF704711F0004302D54042A9
:107F800061EB41015FEA010C02BF8446014600201B
:107F900043F0B64308BFA3F18053A3F50003BCFA36
:107FA0008CF2083AA3EBC25310DB01FA02FC6344E3
:107FB00000FA02FCC2F12002BCF1004F20FA02F2EA
:107FC00043EB020008BF20F00100704702F12002DD
:107FD00001FA02FCC2F1200250EA4C0021FA02F23E
:107FE00043EB020008BF20EADC70704753B94AB97E
:107FF000002908BF00281CBF4FF0FF314FF0FF30B1
:1080000000F0F2B9ADF1080C6DE904CE00F084F88F
:10801000DDF804E0DDE9022304B07047430803F013
:108020005533C01A830803F0333300F0333018445B
:1080300000EB101000F00F3000EB002000EB0040D0
:10804000000E704707EE900AF5EEC07AF1EE10FAD6
:1080500001D400F023B8F1EE677A08B517EE900A64
:1080600000F01CF8404261EB410108BD38B5002228
:10807000002304460D46FFF713FE28B92046294683
:10808000BDE8384000F02AB8204605F1004100F074
:1080900025F8404261EB410138BD00BFD0B5FFF784
:1080A00035FB0C4B002206460F46FFF787FBFFF718
:1080B0001FFE0446FFF708FB074B0022FFF77EFB7D
:1080C00002460B4630463946FFF7C0F9FFF710FE6F
:1080D0002146D0BD0000F03D0000F041D0B50C4B72
:1080E000002206460F46FFF769FBFFF701FE044634
:1080F000FFF7EAFA074B0022FFF760FB02460B4648
:1081000030463946FFF7A2F9FFF7F2FD2146D0BD10
:108110000000F03D0000F0412DE9F047089D0446C5
:108120008E46002B4DD18A42944669D9B2FA82F22A
:1081300052B101FA02F3C2F1200120FA01F10CFA66
:1081400002FC41EA030E94404FEA1C48210CBEFB9E
:10815000F8F61FFA8CF708FB16E341EA034306FB27
:1081600007F199420AD91CEB030306F1FF3080F0B6
:108170001F81994240F21C81023E63445B1AA4B203
:10818000B3FBF8F008FB103344EA034400FB07F7A5
:10819000A7420AD91CEB040400F1FF3380F00A81E6
:1081A000A74240F207816444023840EA0640E41BDB
:1081B00000261DB1D4400023C5E900433146BDE887
:1081C000F0878B4209D9002D00F0EF800026C5E929
:1081D000000130463146BDE8F087B3FA83F6002E41
:1081E0004AD18B4202D3824200F2F980841A61EBB9
:1081F000030301209E46002DE0D0C5E9004EDDE7D7
:1082000002B9FFDEB2FA82F2002A40F09280A1EBBE
:108210000C014FEA1C471FFA8CFE0126200CB1FB13
:10822000F7F307FB131140EA01410EFB03F088420C
:1082300008D91CEB010103F1FF3802D2884200F299
:10824000CB804346091AA4B2B1FBF7F007FB10112B
:1082500044EA01440EFB00FEA64508D91CEB0404C9
:1082600000F1FF3102D2A64500F2BB800846A4EB24
:108270000E0440EA03409CE7C6F12007B34022FA0F
:1082800007FC4CEA030C20FA07F401FA06F31C433E
:10829000F9404FEA1C4900FA06F3B1FBF9F8200C4B
:1082A0001FFA8CFE09FB181140EA014108FB0EF091
:1082B000884202FA06F20BD91CEB010108F1FF3AE1
:1082C00080F08880884240F28580A8F102086144ED
:1082D000091AA4B2B1FBF9F009FB101144EA0141FB
:1082E00000FB0EFE8E4508D91CEB010100F1FF34A6
:1082F0006CD28E456AD90238614440EA0840A0FB3E
:108300000294A1EB0E01A142C846A64656D353D013
:108310005DB1B3EB080261EB0E0101FA07F722FA37
:1083200006F3F1401F43C5E9007100263146BDE860
:10833000F087C2F12003D8400CFA02FC21FA03F3C3
:10834000914001434FEA1C471FFA8CFEB3FBF7F044
:1083500007FB10360B0C43EA064300FB0EF69E4269
:1083600004FA02F408D91CEB030300F1FF382FD202
:108370009E422DD9023863449B1B89B2B3FBF7F6AA
:1083800007FB163341EA034106FB0EF38B4208D983
:108390001CEB010106F1FF3816D28B4214D9023EC4
:1083A0006144C91A46EA004638E72E46284605E7E2
:1083B0000646E3E61846F8E64B45A9D2B9EB0208B3
:1083C00064EB0C0E0138A3E74646EAE7204694E743
:1083D0004046D1E7D0467BE7023B614432E7304676
:1083E00009E76444023842E7704700BF13B50C2226
:1083F000C0B25043144B01211C18185812F09CF9BC
:10840000684611F0DDFF2389009340F20313606892
:10841000ADF80430694600238DF8073011F08EFF67
:1084200001230A48A17A1A4611F097FD074811F076
:10843000D3FD0648022111F0D7FD0028F9D00348EA
:1084400011F0CFFD02B010BD4073030800210140C0
:108450007FB5144A0123834008281360124B1AD0B9
:108460000A2815D0062819D000221A601B6800932C
:108470000023CDE90233ADF8043004930B48012307
:1084800069468DF8143011F015FD07B05DF804FB56
:108490004FF08072E9E74FF00072E6E74FF040726C
:1084A000E3E700BFF81D0020FC1D00200021014073
:1084B00000B58BB011F0F0FC04A811F021FD684666
:1084C00011F03CFD01214FF4007012F059F9002326
:1084D0006846CDE90033CDE9023311F01BFD0C20D5
:1084E000FFF7B6FF0348012111F02EFD0BB05DF838
:1084F00004FB00BF0021014038B5FFF777FFFFF70D
:10850000F3F80022094BFFF759F9094B04461868A4
:108510000D46FFF7D9F802460B4620462946FFF7DD
:1085200077FAFFF705FC00EE100A38BD000008409E
:10853000F81D0020F7B50C23C6B27343124C0D464C
:10854000E718E058012112F0F7F800236A1EADF891
:1085500006303B89009353425341022D8DF804307D
:108560000ED101238DF807300C2000FB06440123B7
:1085700060688DF80530694611F0E0FE03B0F0BD8B
:10858000032DF1D10223EDE740730308C3B2054880
:108590000C2202FB03000A1E18BF01220189406859
:1085A00011F01EBF4073030808B5C3B205480C2282
:1085B00002FB03000189406811F008FF431E584286
:1085C000584108BD4073030810B5044686B01048F2
:1085D00012F016F94FF482720023ADF808200C480F
:1085E000ADF806304FF400720DF10601ADF80A3017
:1085F000ADF80C30ADF80E30ADF81020ADF81430F9
:10860000ADF81630ADF8124012F056F906B010BDB4
:108610000030014070B5032292B0002101202AF001
:1086200095F8414B03221860002101202AF08EF8B2
:108630003E4B186001202AF09AF93D4B0121186049
:108640004FF4805012F09CF80121084612F074F8A3
:1086500001214FF4800012F06FF8052211463548D1
:1086600011F0C3FE33480522062111F0BEFE314849
:108670000522072111F0B9FE2F4B2E48202201A917
:10868000CDE9012311F05AFE802301A92948019365
:10869000402611F053FE01A92648019611F04EFE26
:1086A0004FF4806300240993244B04934FF0C0657A
:1086B0004FF40033214622480D93CDE90E44109427
:1086C0000B940C9411940A940894079405940395C0
:1086D000069611F04DFD03A9194811F01FFD214622
:1086E00018480694039511F043FD03A9154811F0AD
:1086F00015FD07238DF801308DF802404423012435
:1087000068468DF800308DF8034011F09DFF382346
:1087100068468DF8003011F097FF2820FFF754FFCE
:10872000094B1C7012B070BD581E0020481E00205E
:10873000501E002000000240020200020C300140E6
:108740008864024010640240011E002001F1704361
:10875000B3F5803F70B504460E46154604D22B494A
:108760002B48E22226F00CF805F17043B3F5803F68
:1087700004D226492648E32226F002F8254B264853
:10878000C3F894600122C3F88C401021DD615C6164
:1087900011F030FD01222148102111F02BFD20495C
:1087A0001D4811F011FD1F491C4811F00DFD1A481C
:1087B000012111F0DDFC1948012111F0D9FC1A4802
:1087C0000122022112F0A3F801221146164812F0EC
:1087D0009EF81548012112F08EF8144B4FF0FF312E
:1087E00018682AF043FA01280ED1114B4FF0FF31DF
:1087F00018682AF03BFA431E5C425C410A4800219B
:1088000012F079F8204670BD0024F7E7DC73030806
:1088100063B50308006402408864024010640240AB
:10882000400F00203D00801000300140581E002005
:10883000481E002010B5064B04464FF0FF31186863
:108840002AF014FA2046BDE81040FFF7BDBE00BF75
:10885000501E00200348002300681A46194629F0DC
:10886000ADBF00BF501E002013B50024224614489F
:108870000194102111F0BEFC1249114811F004FDC1
:1088800010490F4811F0A0FC22460F48022112F0B7
:108890003EF80B48214611F06BFC0C4B01A91868FF
:1088A0002AF0E6F8019B4BB14FF0E0234FF08052E5
:1088B000C3F8042DBFF34F8FBFF36F8F02B010BD0D
:1088C000886402400008002000300140581E00204B
:1088D00013B50024224614480194102111F08AFC9B
:1088E0001249114811F0D0FC10490F4811F06CFCEE
:1088F00022460F48012112F00AF80B48214611F0D8
:1089000037FC0C4B01A918682AF0B2F8019B4BB157
:108910004FF0E0234FF08052C3F8042DBFF34F8F88
:10892000BFF36F8F02B010BD106402402000001032
:1089300000300140481E0020064A13784BB9064B10
:1089400006491960064B5B1A06499B100B60012310
:1089500013707047641E00205C1E002074340408ED
:10896000B4340408601E002008B5FFF7E5FF014B92
:10897000186808BD601E002070B50D46FFF7DCFFCB
:10898000094B1A68094B0446196800239A4201DC16
:10899000002070BD51F823000678A64202D1467827
:1089A000AE42F6D00133F1E7601E00205C1E0020CD
:1089B0002DE9F041FFF7C0FF0B4B1F680B4BD3F8BD
:1089C000008006460024A74203DC00252846BDE8B7
:1089D000F08158F8245030466968FEF785F9002880
:1089E000F4D00134EFE700BF601E00205C1E0020C1
:1089F00030B5034644680020844202DC4FF0FF306B
:108A000030BD1A68155C8D42FAD0024452780232A9
:108A10001044F1E7014B1868704700BF681E002042
:108A2000044B1B688342C3BF034B7C2202FB003014
:108A300000207047681E00200000001008B5FFF7F6
:108A4000D7FFC043C00F08BDF8B5044617461D4602
:108A5000FFF7CEFF061E10DB21688B196C1E5A78BB
:108A60009442A8BF14460236224631443846FDF7E8
:108A700095FF00233B552046F8BD00233B704FF087
:108A8000FF34F8E730B51E4C8BB02368CDF80A30C0
:108A9000A388ADF80E300546A3798DF8103000217B
:108AA00017220DF11100FEF713F8D4F81E00638CA5
:108AB000009005F17004ADF8043001210023204638
:108AC000CDF80630FFF7BAFF28B11E230DF10A02D8
:108AD0002046FFF7B9FF02212046FFF7AFFF20B184
:108AE0000A236A462046FFF7AFFFAA6F054B9A425A
:108AF00003D10549054826F0C3FA0BB030BD00BFCD
:108B0000A86C0308E8770308177403088DF20108BE
:108B10002DE9F04FA44B8BB01D7800AF002D40F035
:108B200086807D720CF01AF907F109000CF05CF9EF
:108B3000064610B39D4CDFF8BCA2DFF87C92DFF84C
:108B4000B8B2A8467B7A98451DDA234670220021E8
:108B50005FFA88F00CF08EF9002800F0B2802378DC
:108B6000EB2B68D09249484626F08AFA424659468D
:108B7000484626F085FA002697E08E498E4826F072
:108B80007FFA7E7201268D4CD4F8008098F8003070
:108B90004BB38B4904224046FEF7E0FA18B3424635
:108BA00088498548DFF854A2DFF80C82DFF8FCB171
:108BB00026F066FA216879603A2308467B81FEF741
:108BC0005FFA083020F00700E946ADEB000D796848
:108BD0006846FEF7F3F907F10A016846FEF730FB35
:108BE000002877D1CD46784C0EB17B7A23606F4E4A
:108BF000714A4FF00008B146C346C24601212068C1
:108C00008045C0F28E8001B92160DFF8F491DFF871
:108C1000F4B1DFF8A4A14FF0000823689845C0F232
:108C2000A8800DB1002323605F4A012313702C3705
:108C3000BD46BDE8F08F0721204626F054F8E379C1
:108C4000C0B2834201D061498DE7237A0BB16049FC
:108C500089E7617A04F10800023126F044F8534AAA
:108C6000617A7C2303FB08230B44C2B29B7A9A42AD
:108C700004D05849484626F003FA77E704F10A037E
:108C8000C4E91C3107F10A021E23012104F170001E
:108C9000FFF7DAFE607960B1A179FFF76DFE00B9E8
:108CA0004D48A0672046FFF7EDFE08F101087C342F
:108CB00048E7BB7A002BF3D007F10A00FFF778FEF4
:108CC000EDE7786042465146484626F0D9F97B6880
:108CD0001E46EAE72060FFF76BFE50B922683F4965
:108CE000404626F0CDF907F10A010020FEF7A8FA68
:108CF00076E7C36913B9036A002BF4D07B7A042B9F
:108D00000AD80133DBB27C227B72013B02FB03B346
:108D1000334922689867E3E75146404626F0B0F9A8
:108D2000E1E7D9F8780080681AEA000008D02D4BF6
:108D3000184205D02C49104626F0A2F91E4A0021FF
:108D4000D9F87800C0681BEA000F05D02749104603
:108D500026F096F9184A0021D9F8783098684AEA3E
:108D6000000AD86808F101084BEA000B09F17C09F8
:108D700045E7BDB9B36F1B7C23B199F800205AB900
:108D800089F800301A4AB36F11785B7C0B4313707B
:108D900008F101087C3640E79342F3D0594650462B
:108DA00026F06EF90125EDE76C1E00200000001092
:108DB00098740308467403088DF2010838040020F3
:108DC000E6750308EB750308681E0020C2740308EB
:108DD000F174030821750308E87703081276030885
:108DE0004F760308F3E3FFFFBB76030834770308ED
:108DF0006E1E00209E750308547503087F760308D5
:108E00006D1E0020AB770308014B1878704700BF38
:108E10006D1E0020014B1878704700BF6E1E0020A9
:108E20004FF0A040704700004FF4883070470000BA
:108E3000014B1868704700BF242D002041F6FF70D9
:108E400070474FF48050704741F2F40070472DE9AD
:108E5000F3411E468368044690460F46984710F03B
:108E6000010F0CBF01250325820748BF45F02005EF
:108E70004307636848BF45F040050BB145F0040562
:108E800023680BB145F00805237B0BB145F01005B5
:108E90003570236A626A003B18BF01230AB143F0B0
:108EA000020373706369C6F80230A369C6F806301E
:108EB000C6F80A801122394606F10E00FEF78EF937
:108EC000E369A3B13846FEF7DBF833183A229A7308
:108ED000E169019105460846FEF7D2F80F35019980
:108EE0000246701902B0BDE8F041FDF757BD02B06F
:108EF000BDE8F0812DE9F04F2DED028B83B000AF7E
:108F000006460C469046FFF785FDB6F1805F786017
:108F10005ED2224600214046FDF7DAFD002E54D1F4
:108F200034B901200C37BD46BDEC028BBDE8F08F93
:108F30000323013C88F80030E4B24FF00109002C13
:108F4000EFD06B4608EE103A7A6806EB09033B60F7
:108F5000013BB2EB931F4FEA9315E2DD90B0284638
:108F6000FFF75EFD8246002140226846FDF7B0FD16
:108F7000DAF878104869EB4628B16A1C49686B46F4
:108F80001207FFF764FFDAF87810886930B1AA1C7D
:108F900049680BF120031207FFF759FF3B68A9014D
:108FA0000131591AC1F1400AA245A8BFA24608EBF7
:108FB000090052465944FDF7F1FC18EE103AA4EBB3
:108FC0000A04E4B2D1449D46B9E74FF00009B6E780
:108FD0007A68330F013B5000B0EB530F4FEA53094F
:108FE00001DC00209EE7484603F00105FFF718FD6D
:108FF000826F536905B19369002BF2D05B68002B37
:10900000EFD009F10100284442462146A6EB00704A
:10901000984787E7F0B5B0F5805F85B004460E4607
:10902000154619D24FF480712A4802F075FC29497F
:10903000013C0023B34202DB012005B0F0BD671CF8
:1090400006D0A04206DD625CEA543C460133F1E7FB
:109050000246F9E70022F7E7A0F58053B3F5805FF9
:1090600018D24FF480711B4802F078FCA4F58054AC
:109070001849013C0023B342DEDA621C06D0A0424C
:1090800006DD625CEA5401340133F4E70246F9E795
:109090000022F7E710F0FF01A0F5005716D10D2EC2
:1090A00016D110226846FDF713FD6946C7F3072065
:1090B00002F010FC019B2B60029B6B60039BAB607A
:1090C000009B003B18BF01232B73B5E70020B4E7DA
:1090D0000846B2E72824002010B4084C0B46246848
:1090E00011461A18A24204D85DF8044B1A4604F03F
:1090F0008DBD00205DF8044B704700BF242D00207B
:1091000003461046CA18B2F5005F03D20A4699B268
:1091100005F0A4B80020704710B45418702C04D87F
:109120005DF8044B89B20BF0A5BE00205DF8044B3E
:109130007047000017F0D2B80346B3F5805F10B552
:10914000104612D2B3F5806F20D251FA83F4342C3A
:10915000DAB21BD81B0A342404FB03230A460C4949
:109160001944FDF71BFC012010BDA3F58053B3F596
:10917000806F0BD251FA83F43D2CDAB206D81B0A69
:109180003D2404FB03230A460249E9E70020EBE7FC
:10919000D4BE0020E0BD0020032970B5044615466A
:1091A00003D8036903B15A5470BD0429FCD1EA07FE
:1091B00002D5036A03B19847AB07F5D5636A002B64
:1091C000F2D0BDE8704018472DE9F04704460F463D
:1091D0009046FFF71FFCB4F1805F054620D20026C1
:1091E00019E0B4F5805F14D3A4F58059B5EB991F4D
:1091F0004FEA99100DDDFFF713FC836F18F8062076
:1092000019F0200F0CBF5869986909F01F01FFF78A
:10921000C3FF01360134BE42E3D30120BDE8F0872D
:10922000230F013B4500B5EB530F4FEA530601DC1A
:109230000020F3E7304603F00105FFF7F1FB826FF2
:10924000536905B19369002BF2D0D3F800E0BEF169
:10925000000FEDD0701C284442463946A4EB007044
:10926000F446BDE8F047604703461046CA18B2F519
:10927000005F03D20A4699B205F008B80020704793
:1092800010B45418702C04D85DF8044B89B20BF05C
:1092900053BE00205DF8044B7047000017F00CB877
:1092A000B0F5805FF8B50D4611461BD2B0F5806F62
:1092B00035D255FA80F3342BC2B230D8040A3423A5
:1092C00018486343C61803F56D731344002786F8E6
:1092D000E4732A461844FDF761FB204620F044FD64
:1092E0000120F8BDA0F58050B0F5806F17D255FA77
:1092F00080F33D2BC2B212D8040A3D2309486343D0
:10930000C61803F530731344002786F8FC722A460A
:109310001844FDF743FBE0B220F0A6FDE0E7002093
:10932000DFE700BF20BB0020014819F093B900BF60
:109330000C7803082DE9F843FFF716FBFFF7E8FB6D
:10934000FFF7F2FFFFF766FB1449DFF85880144F70
:10935000DFF8549002460646114825F091FE00249D
:10936000B44201DBBDE8F8832046FFF759FB836F69
:10937000DA69054652B15A6852B123464946384621
:1093800025F07EFEAB6F2846DB6998470134E7E79E
:1093900022464146384625F073FEF3E74478030839
:1093A0008DF2010893780308617803082DE9F047EE
:1093B000FFF730FBDFF84490DFF84480DFF844A08B
:1093C000064600240127B44202DB3846BDE8F08798
:1093D0002046FFF725FB836F1B6A3BB19847224667
:1093E000054628B15146404625F04AFE0134EAE7D9
:1093F0004946404625F044FE2F46F7E7D778030854
:109400008DF20108B878030870B5134D134E03466A
:1094100004462A4603CAB24220606160154604F140
:109420000804F6D10E4D0F4E03F128042A4603CA54
:10943000B24220606160154604F10804F6D10A4C7E
:109440000A4D5033224603CAAA4218605960144696
:1094500003F10803F6D170BD00000240280002406D
:10946000000402402804024000080240280802408C
:1094700070B5114D0246034600F128061868596878
:109480002C4603C40833B3422546F7D10B4D02F1F5
:109490005006186859682C4603C40833B342254661
:1094A000F7D1074D7832186859682C4603C4083341
:1094B00093422546F7D170BD0000024000040240EF
:1094C000000802402DE9F8430E4CDFF83C80DFF83D
:1094D0003C9005460B26012734F8021C54F8060C74
:1094E00010F074FF854206D02B462246414648467E
:1094F00025F0C6FD0027013E04F10C04ECD13846EE
:10950000BDE8F88342040020F87803088DF20108D2
:109510002DE9F041A2B00DF097FF0121044607208C
:1095200011F00AF904A8374DFFF76EFF2F460B26FE
:109530004FF00008BB8857F80C0B02A9CDE90238A0
:1095400010F0FCFE013EF5D10B274FF0010874B37B
:10955000AB882868029302A9ADF80C808DF80E60E4
:1095600010F0ECFEA988286810F036FF0196019BE8
:10957000B3F57A7F3DDB0120FFF7A4FFA9880446FD
:10958000286810F02BFF0196019BB3F57A7F34DB3E
:109590000020FFF797FF02A9002855F80C0B8DF863
:1095A0000C6008BF002410F0C9FE013FCFD104A811
:1095B000FFF75EFFCCB101231348ADF80C308026D5
:1095C000002302A98DF80E304025029610F0B6FE59
:1095D0000D48029502A910F0B1FE0B48314610F07B
:1095E000FDFE0948294610F0F9FE204622B0BDE8EC
:1095F000F081019B01330193B9E7019B0133019392
:10960000C2E700BF3C040020000402402DE9F04FF7
:10961000A5B00DF019FF01210446072011F08CF8C8
:1096200006A8DFF8B881FFF7EFFE46460B250027B6
:10963000B38856F80C0B04A9CDE9043710F07EFE70
:10964000013DF5D1654E0B274FF0010A002C4FD09C
:10965000B3883068049304A9ADF814A08DF81650AF
:1096600010F06CFEB188306810F0B6FE0395039BD5
:10967000B3F57A7F59DB4346A1464FF0000B1846FD
:109680000121019300F054F90BF1010B0028019B1B
:1096900008BF4FF00009BBF10B0F03F10C03EED133
:1096A000B188306810F09AFE0395039BB3F57A7F7A
:1096B0003FDB43464FF0000B18460021019300F0BA
:1096C00037F90BF1010B0028019B08BF0024BBF107
:1096D0000B0F03F10C03EFD1002C56F80C0B8DF897
:1096E000145004A918BF4C4610F028FE013FADD11C
:1096F0003B4E082537464FF00008BB8857F80C0B47
:1097000004A9CDE9043810F019FE013DF5D1039507
:1097100042F20F72039B93420FDD314F002584B953
:109720000024204625B0BDE8F08F039B013303934E
:109730009DE7039B01330393B7E7039B0133039337
:10974000E8E73846012100F0F3F80135042D04461E
:1097500007F10C07E3D101274FF0000842F20F791F
:10976000002CDDD0B38E306B04A9CDE9043710F0A6
:10977000E5FDB18E306B10F02FFECDF80C80039B11
:109780004B4526DD3046002100F0D2F80135082D8A
:10979000044606F10C06E3D10028C1D0012380263F
:1097A000ADF8143004A900230E488DF8163040257A
:1097B000049610F0C3FD04A90A48049510F0BEFDFC
:1097C0003146084810F00AFE0648294610F006FE09
:1097D000A7E7039B01330393D1E700BFC004002038
:1097E00080050020000402402DE9F8430E4CDFF80C
:1097F0003C80DFF83C9005460526012734F8021C22
:1098000054F8060C10F0E2FD854206D02B462246A5
:109810004146484625F034FC0027013E04F10C0483
:10982000ECD13846BDE8F8834A050020F8780308F3
:109830008DF201082DE9F041A2B00DF005FE0121E5
:109840000446072010F078FF04A8374DFFF7DCFD31
:109850002F4605264FF00008BB8857F80C0B02A9CD
:10986000CDE9023810F06AFD013EF5D105274FF031
:10987000010874B3AB882868029302A9ADF80C8084
:109880008DF80E6010F05AFDA988286810F0A4FD2C
:109890000196019BB3F57A7F3DDB0120FFF7A4FF22
:1098A000A9880446286810F099FD0196019BB3F53C
:1098B0007A7F34DB0020FFF797FF02A9002855F8D4
:1098C0000C0B8DF80C6008BF002410F037FD013F31
:1098D000CFD104A8FFF7CCFDCCB101231348ADF8DC
:1098E0000C308026002302A98DF80E304025029608
:1098F00010F024FD0D48029502A910F01FFD0B4841
:10990000314610F06BFD0948294610F067FD2046EE
:1099100022B0BDE8F081019B01330193B9E7019BBF
:1099200001330193C2E700BF440500200004024058
:1099300038B50D4604468188006810F047FD854221
:1099400007D0054905482B46A21D25F099FB0020AC
:1099500038BD0120FCE700BFEC9103088DF201083F
:109960002DE9F3411CF024FF2A4E2B4D2B4F30786C
:10997000002849D02A4B2B4C042200219E4613F884
:10998000018B14F801CBE0451CBF03F801CC014664
:10999000013AF4D131B12448CDF800E004232E215E
:1099A00005F0DEF93B78012B2ED9204B204C1B789B
:1099B00022789A420DD0237001231A461A48009447
:1099C0002E2105F0CDF91B4B22781B481A7017F099
:1099D00077FB2B7823B94FF47A702AF015F8C6E795
:1099E000DFF85C8029F0ACFED8F8003098420446DD
:1099F0000AD9124B00930C48012302222E21643411
:109A000005F048F9C8F800402B78002BE3D00A2075
:109A1000E3E700BF741E0020711E0020701E0020AE
:109A2000E1050020E605002090090020E505002062
:109A3000E0050020721E0020B43404086F1E0020D0
:109A4000781E002010B5104B1878A0B10F491048AF
:109A5000104CFDF749F978B90123237023780E4C97
:109A6000002B14BF01230023237003D10B490C48A2
:109A700025F006FB207810BD04490A48FDF734F9AB
:109A80000028EBD10223E8E7021E00207C1E002004
:109A900030920308701E0020741E002048920308B4
:109AA0008DF201083C92030873B5124E3478F4B974
:109AB000114D124912480194032300939622234624
:109AC00029F0BCFC0D2221462846FDF701F80C23A5
:109AD00010222E210B48009505F0DCF80A4B0B49AB
:109AE00018702A460A4825F0CBFA0123337002B0D9
:109AF00070BD00BF021E00207C1E00206D92030876
:109B00006199000890090020731E00207F920308CD
